{
  "contractName": "Metafloris",
  "abi": [
    {
      "inputs": [],
      "stateMutability": "nonpayable",
      "type": "constructor"
    },
    {
      "anonymous": false,
      "inputs": [
        {
          "indexed": true,
          "internalType": "address",
          "name": "owner",
          "type": "address"
        },
        {
          "indexed": true,
          "internalType": "address",
          "name": "approved",
          "type": "address"
        },
        {
          "indexed": true,
          "internalType": "uint256",
          "name": "tokenId",
          "type": "uint256"
        }
      ],
      "name": "Approval",
      "type": "event"
    },
    {
      "anonymous": false,
      "inputs": [
        {
          "indexed": true,
          "internalType": "address",
          "name": "owner",
          "type": "address"
        },
        {
          "indexed": true,
          "internalType": "address",
          "name": "operator",
          "type": "address"
        },
        {
          "indexed": false,
          "internalType": "bool",
          "name": "approved",
          "type": "bool"
        }
      ],
      "name": "ApprovalForAll",
      "type": "event"
    },
    {
      "anonymous": false,
      "inputs": [
        {
          "indexed": true,
          "internalType": "address",
          "name": "previousOwner",
          "type": "address"
        },
        {
          "indexed": true,
          "internalType": "address",
          "name": "newOwner",
          "type": "address"
        }
      ],
      "name": "OwnershipTransferred",
      "type": "event"
    },
    {
      "anonymous": false,
      "inputs": [
        {
          "indexed": true,
          "internalType": "address",
          "name": "from",
          "type": "address"
        },
        {
          "indexed": true,
          "internalType": "address",
          "name": "to",
          "type": "address"
        },
        {
          "indexed": true,
          "internalType": "uint256",
          "name": "tokenId",
          "type": "uint256"
        }
      ],
      "name": "Transfer",
      "type": "event"
    },
    {
      "inputs": [
        {
          "internalType": "address",
          "name": "to",
          "type": "address"
        },
        {
          "internalType": "uint256",
          "name": "tokenId",
          "type": "uint256"
        }
      ],
      "name": "approve",
      "outputs": [],
      "stateMutability": "nonpayable",
      "type": "function"
    },
    {
      "inputs": [
        {
          "internalType": "address",
          "name": "owner",
          "type": "address"
        }
      ],
      "name": "balanceOf",
      "outputs": [
        {
          "internalType": "uint256",
          "name": "",
          "type": "uint256"
        }
      ],
      "stateMutability": "view",
      "type": "function",
      "constant": true
    },
    {
      "inputs": [
        {
          "internalType": "uint256",
          "name": "tokenId",
          "type": "uint256"
        }
      ],
      "name": "getApproved",
      "outputs": [
        {
          "internalType": "address",
          "name": "",
          "type": "address"
        }
      ],
      "stateMutability": "view",
      "type": "function",
      "constant": true
    },
    {
      "inputs": [
        {
          "internalType": "address",
          "name": "owner",
          "type": "address"
        },
        {
          "internalType": "address",
          "name": "operator",
          "type": "address"
        }
      ],
      "name": "isApprovedForAll",
      "outputs": [
        {
          "internalType": "bool",
          "name": "",
          "type": "bool"
        }
      ],
      "stateMutability": "view",
      "type": "function",
      "constant": true
    },
    {
      "inputs": [],
      "name": "isOwner",
      "outputs": [
        {
          "internalType": "bool",
          "name": "",
          "type": "bool"
        }
      ],
      "stateMutability": "view",
      "type": "function",
      "constant": true
    },
    {
      "inputs": [],
      "name": "name",
      "outputs": [
        {
          "internalType": "string",
          "name": "",
          "type": "string"
        }
      ],
      "stateMutability": "view",
      "type": "function",
      "constant": true
    },
    {
      "inputs": [],
      "name": "owner",
      "outputs": [
        {
          "internalType": "address payable",
          "name": "",
          "type": "address"
        }
      ],
      "stateMutability": "view",
      "type": "function",
      "constant": true
    },
    {
      "inputs": [
        {
          "internalType": "uint256",
          "name": "tokenId",
          "type": "uint256"
        }
      ],
      "name": "ownerOf",
      "outputs": [
        {
          "internalType": "address",
          "name": "",
          "type": "address"
        }
      ],
      "stateMutability": "view",
      "type": "function",
      "constant": true
    },
    {
      "inputs": [],
      "name": "renounceOwnership",
      "outputs": [],
      "stateMutability": "nonpayable",
      "type": "function"
    },
    {
      "inputs": [
        {
          "internalType": "address",
          "name": "from",
          "type": "address"
        },
        {
          "internalType": "address",
          "name": "to",
          "type": "address"
        },
        {
          "internalType": "uint256",
          "name": "tokenId",
          "type": "uint256"
        }
      ],
      "name": "safeTransferFrom",
      "outputs": [],
      "stateMutability": "nonpayable",
      "type": "function"
    },
    {
      "inputs": [
        {
          "internalType": "address",
          "name": "from",
          "type": "address"
        },
        {
          "internalType": "address",
          "name": "to",
          "type": "address"
        },
        {
          "internalType": "uint256",
          "name": "tokenId",
          "type": "uint256"
        },
        {
          "internalType": "bytes",
          "name": "data",
          "type": "bytes"
        }
      ],
      "name": "safeTransferFrom",
      "outputs": [],
      "stateMutability": "nonpayable",
      "type": "function"
    },
    {
      "inputs": [
        {
          "internalType": "address",
          "name": "operator",
          "type": "address"
        },
        {
          "internalType": "bool",
          "name": "approved",
          "type": "bool"
        }
      ],
      "name": "setApprovalForAll",
      "outputs": [],
      "stateMutability": "nonpayable",
      "type": "function"
    },
    {
      "inputs": [
        {
          "internalType": "string",
          "name": "baseURI_",
          "type": "string"
        }
      ],
      "name": "setBaseURI",
      "outputs": [],
      "stateMutability": "nonpayable",
      "type": "function"
    },
    {
      "inputs": [
        {
          "internalType": "string",
          "name": "name_",
          "type": "string"
        }
      ],
      "name": "setName",
      "outputs": [],
      "stateMutability": "nonpayable",
      "type": "function"
    },
    {
      "inputs": [
        {
          "internalType": "string",
          "name": "symbol_",
          "type": "string"
        }
      ],
      "name": "setSymbol",
      "outputs": [],
      "stateMutability": "nonpayable",
      "type": "function"
    },
    {
      "inputs": [],
      "name": "symbol",
      "outputs": [
        {
          "internalType": "string",
          "name": "",
          "type": "string"
        }
      ],
      "stateMutability": "view",
      "type": "function",
      "constant": true
    },
    {
      "inputs": [
        {
          "internalType": "address",
          "name": "from",
          "type": "address"
        },
        {
          "internalType": "address",
          "name": "to",
          "type": "address"
        },
        {
          "internalType": "uint256",
          "name": "tokenId",
          "type": "uint256"
        }
      ],
      "name": "transferFrom",
      "outputs": [],
      "stateMutability": "nonpayable",
      "type": "function"
    },
    {
      "inputs": [
        {
          "internalType": "address payable",
          "name": "newOwner",
          "type": "address"
        }
      ],
      "name": "transferOwnership",
      "outputs": [],
      "stateMutability": "nonpayable",
      "type": "function"
    },
    {
      "inputs": [
        {
          "internalType": "uint256",
          "name": "flowerType",
          "type": "uint256"
        }
      ],
      "name": "getProductSellState",
      "outputs": [
        {
          "internalType": "uint256",
          "name": "",
          "type": "uint256"
        }
      ],
      "stateMutability": "view",
      "type": "function",
      "constant": true
    },
    {
      "inputs": [
        {
          "internalType": "uint256",
          "name": "tokenId",
          "type": "uint256"
        }
      ],
      "name": "getFlowerItemByTokenId",
      "outputs": [
        {
          "components": [
            {
              "internalType": "uint256",
              "name": "_flowerType",
              "type": "uint256"
            },
            {
              "internalType": "string",
              "name": "_flowerName",
              "type": "string"
            },
            {
              "internalType": "uint256",
              "name": "_maxAmount",
              "type": "uint256"
            },
            {
              "internalType": "string",
              "name": "_tokenInfoUri",
              "type": "string"
            },
            {
              "internalType": "uint256",
              "name": "_price",
              "type": "uint256"
            }
          ],
          "internalType": "struct Metafloris.MetaflorisFlower",
          "name": "",
          "type": "tuple"
        }
      ],
      "stateMutability": "view",
      "type": "function",
      "constant": true
    },
    {
      "inputs": [],
      "name": "getFlowerTypeCnt",
      "outputs": [
        {
          "internalType": "uint256",
          "name": "",
          "type": "uint256"
        }
      ],
      "stateMutability": "view",
      "type": "function",
      "constant": true
    },
    {
      "inputs": [
        {
          "internalType": "uint256",
          "name": "flowerType",
          "type": "uint256"
        }
      ],
      "name": "getMetaflorisFlowerInfo",
      "outputs": [
        {
          "components": [
            {
              "internalType": "uint256",
              "name": "_flowerType",
              "type": "uint256"
            },
            {
              "internalType": "string",
              "name": "_flowerName",
              "type": "string"
            },
            {
              "internalType": "uint256",
              "name": "_maxAmount",
              "type": "uint256"
            },
            {
              "internalType": "string",
              "name": "_tokenInfoUri",
              "type": "string"
            },
            {
              "internalType": "uint256",
              "name": "_price",
              "type": "uint256"
            }
          ],
          "internalType": "struct Metafloris.MetaflorisFlower",
          "name": "",
          "type": "tuple"
        }
      ],
      "stateMutability": "view",
      "type": "function",
      "constant": true
    },
    {
      "inputs": [
        {
          "internalType": "string",
          "name": "flowerName",
          "type": "string"
        },
        {
          "internalType": "uint256",
          "name": "maxAmount",
          "type": "uint256"
        },
        {
          "internalType": "string",
          "name": "tokenUri",
          "type": "string"
        },
        {
          "internalType": "uint256",
          "name": "price",
          "type": "uint256"
        }
      ],
      "name": "addProduct",
      "outputs": [
        {
          "components": [
            {
              "internalType": "uint256",
              "name": "_flowerType",
              "type": "uint256"
            },
            {
              "internalType": "string",
              "name": "_flowerName",
              "type": "string"
            },
            {
              "internalType": "uint256",
              "name": "_maxAmount",
              "type": "uint256"
            },
            {
              "internalType": "string",
              "name": "_tokenInfoUri",
              "type": "string"
            },
            {
              "internalType": "uint256",
              "name": "_price",
              "type": "uint256"
            }
          ],
          "internalType": "struct Metafloris.MetaflorisFlower",
          "name": "",
          "type": "tuple"
        }
      ],
      "stateMutability": "nonpayable",
      "type": "function"
    },
    {
      "inputs": [
        {
          "internalType": "uint256",
          "name": "flowerType",
          "type": "uint256"
        },
        {
          "internalType": "string",
          "name": "flowerName",
          "type": "string"
        },
        {
          "internalType": "uint256",
          "name": "maxAmount",
          "type": "uint256"
        },
        {
          "internalType": "string",
          "name": "tokenUri",
          "type": "string"
        },
        {
          "internalType": "uint256",
          "name": "price",
          "type": "uint256"
        }
      ],
      "name": "chaneProductInfo",
      "outputs": [],
      "stateMutability": "nonpayable",
      "type": "function"
    },
    {
      "inputs": [
        {
          "internalType": "uint256",
          "name": "tokenId",
          "type": "uint256"
        }
      ],
      "name": "tokenURI",
      "outputs": [
        {
          "internalType": "string",
          "name": "",
          "type": "string"
        }
      ],
      "stateMutability": "view",
      "type": "function",
      "constant": true
    },
    {
      "inputs": [
        {
          "internalType": "bytes4",
          "name": "interfaceId",
          "type": "bytes4"
        }
      ],
      "name": "supportsInterface",
      "outputs": [
        {
          "internalType": "bool",
          "name": "",
          "type": "bool"
        }
      ],
      "stateMutability": "view",
      "type": "function",
      "constant": true
    },
    {
      "inputs": [],
      "name": "getLastCallBlockNumber",
      "outputs": [
        {
          "internalType": "uint256",
          "name": "",
          "type": "uint256"
        }
      ],
      "stateMutability": "view",
      "type": "function",
      "constant": true
    },
    {
      "inputs": [
        {
          "internalType": "uint256",
          "name": "flowerType",
          "type": "uint256"
        }
      ],
      "name": "buyNFT",
      "outputs": [],
      "stateMutability": "payable",
      "type": "function",
      "payable": true
    },
    {
      "inputs": [
        {
          "internalType": "uint256",
          "name": "tokenId",
          "type": "uint256"
        }
      ],
      "name": "changeHoldTime",
      "outputs": [],
      "stateMutability": "nonpayable",
      "type": "function"
    },
    {
      "inputs": [
        {
          "internalType": "uint256",
          "name": "tokenId",
          "type": "uint256"
        }
      ],
      "name": "getHoldTimeMap",
      "outputs": [
        {
          "internalType": "uint256",
          "name": "",
          "type": "uint256"
        }
      ],
      "stateMutability": "view",
      "type": "function",
      "constant": true
    }
  ],
  "bytecode": "0x6080604052600060105534801561001557600080fd5b50336000806101000a81548173ffffffffffffffffffffffffffffffffffffffff021916908373ffffffffffffffffffffffffffffffffffffffff16021790555060008054906101000a900473ffffffffffffffffffffffffffffffffffffffff1673ffffffffffffffffffffffffffffffffffffffff16600073ffffffffffffffffffffffffffffffffffffffff167f8be0079c531659141344cd1fd0a4f28419497f9722a3daafe3b4186f6b6457e060405160405180910390a36000600b81905550600360098190555066038d7ea4c68000600c81905550614584806100fe6000396000f3fe6080604052600436106101cd5760003560e01c80638da5cb5b116100f7578063c47f002711610095578063df83bf3e11610064578063df83bf3e1461069b578063e985e9c5146106d8578063f2fde38b14610715578063f35657fe1461073e576101cd565b8063c47f0027146105cf578063c87b56dd146105f8578063d15ecca114610635578063d5cd5ec114610672576101cd565b8063a22cb465116100d1578063a22cb46514610517578063a5da65f214610540578063b84c82461461057d578063b88d4fde146105a6576101cd565b80638da5cb5b146104965780638f32d59b146104c157806395d89b41146104ec576101cd565b80634c6d60e71161016f57806370a082311161013e57806370a08231146103dc578063715018a614610419578063727d2fdc146104305780638a8f95891461046d576101cd565b80634c6d60e71461032f57806351ed82881461035a57806355f804b3146103765780636352211e1461039f576101cd565b8063095ea7b3116101ab578063095ea7b31461027757806323b872dd146102a05780633a2a925c146102c957806342842e0e14610306576101cd565b806301ffc9a7146101d257806306fdde031461020f578063081812fc1461023a575b600080fd5b3480156101de57600080fd5b506101f960048036038101906101f49190613047565b610769565b604051610206919061308f565b60405180910390f35b34801561021b57600080fd5b5061022461077b565b6040516102319190613143565b60405180910390f35b34801561024657600080fd5b50610261600480360381019061025c919061319b565b61080d565b60405161026e9190613209565b60405180910390f35b34801561028357600080fd5b5061029e60048036038101906102999190613250565b610853565b005b3480156102ac57600080fd5b506102c760048036038101906102c29190613290565b61096a565b005b3480156102d557600080fd5b506102f060048036038101906102eb9190613418565b6109ca565b6040516102fd919061358d565b60405180910390f35b34801561031257600080fd5b5061032d60048036038101906103289190613290565b610c60565b005b34801561033b57600080fd5b50610344610c80565b60405161035191906135be565b60405180910390f35b610374600480360381019061036f919061319b565b610cc7565b005b34801561038257600080fd5b5061039d600480360381019061039891906135d9565b610eb3565b005b3480156103ab57600080fd5b506103c660048036038101906103c1919061319b565b610f14565b6040516103d39190613209565b60405180910390f35b3480156103e857600080fd5b5061040360048036038101906103fe9190613622565b610f9a565b60405161041091906135be565b60405180910390f35b34801561042557600080fd5b5061042e611051565b005b34801561043c57600080fd5b506104576004803603810190610452919061319b565b611156565b604051610464919061358d565b60405180910390f35b34801561047957600080fd5b50610494600480360381019061048f919061319b565b61131f565b005b3480156104a257600080fd5b506104ab6113b0565b6040516104b89190613670565b60405180910390f35b3480156104cd57600080fd5b506104d66113d9565b6040516104e3919061308f565b60405180910390f35b3480156104f857600080fd5b50610501611430565b60405161050e9190613143565b60405180910390f35b34801561052357600080fd5b5061053e600480360381019061053991906136b7565b6114c2565b005b34801561054c57600080fd5b506105676004803603810190610562919061319b565b6114d8565b604051610574919061358d565b60405180910390f35b34801561058957600080fd5b506105a4600480360381019061059f91906135d9565b61168e565b005b3480156105b257600080fd5b506105cd60048036038101906105c89190613798565b6116ef565b005b3480156105db57600080fd5b506105f660048036038101906105f191906135d9565b611751565b005b34801561060457600080fd5b5061061f600480360381019061061a919061319b565b6117b2565b60405161062c9190613143565b60405180910390f35b34801561064157600080fd5b5061065c6004803603810190610657919061319b565b6119d4565b60405161066991906135be565b60405180910390f35b34801561067e57600080fd5b506106996004803603810190610694919061381b565b611a38565b005b3480156106a757600080fd5b506106c260048036038101906106bd919061319b565b611b28565b6040516106cf91906135be565b60405180910390f35b3480156106e457600080fd5b506106ff60048036038101906106fa91906138ce565b611b45565b60405161070c919061308f565b60405180910390f35b34801561072157600080fd5b5061073c6004803603810190610737919061393a565b611bd9565b005b34801561074a57600080fd5b50610753611c2c565b60405161076091906135be565b60405180910390f35b600061077482611c7d565b9050919050565b60606001805461078a90613996565b80601f01602080910402602001604051908101604052809291908181526020018280546107b690613996565b80156108035780601f106107d857610100808354040283529160200191610803565b820191906000526020600020905b8154815290600101906020018083116107e657829003601f168201915b5050505050905090565b600061081882611d5f565b6005600083815260200190815260200160002060009054906101000a900473ffffffffffffffffffffffffffffffffffffffff169050919050565b600061085e82610f14565b90508073ffffffffffffffffffffffffffffffffffffffff168373ffffffffffffffffffffffffffffffffffffffff16036108ce576040517f08c379a00000000000000000000000000000000000000000000000000000000081526004016108c590613a39565b60405180910390fd5b8073ffffffffffffffffffffffffffffffffffffffff166108ed611daa565b73ffffffffffffffffffffffffffffffffffffffff16148061091c575061091b81610916611daa565b611b45565b5b61095b576040517f08c379a000000000000000000000000000000000000000000000000000000000815260040161095290613acb565b60405180910390fd5b6109658383611db2565b505050565b61097b610975611daa565b82611e6b565b6109ba576040517f08c379a00000000000000000000000000000000000000000000000000000000081526004016109b190613b5d565b60405180910390fd5b6109c5838383611f00565b505050565b6109d2612f09565b6109da6113d9565b610a19576040517f08c379a0000000000000000000000000000000000000000000000000000000008152600401610a1090613bc9565b60405180910390fd5b60006010549050600160106000828254610a339190613c18565b925050819055506040518060a00160405280828152602001878152602001868152602001858152602001600c5485610a6b9190613c6e565b815250600e6000838152602001908152602001600020600082015181600001556020820151816001019080519060200190610aa7929190612f38565b50604082015181600201556060820151816003019080519060200190610ace929190612f38565b50608082015181600401559050506000600f600083815260200190815260200160002081905550600e60008281526020019081526020016000206040518060a001604052908160008201548152602001600182018054610b2d90613996565b80601f0160208091040260200160405190810160405280929190818152602001828054610b5990613996565b8015610ba65780601f10610b7b57610100808354040283529160200191610ba6565b820191906000526020600020905b815481529060010190602001808311610b8957829003601f168201915b5050505050815260200160028201548152602001600382018054610bc990613996565b80601f0160208091040260200160405190810160405280929190818152602001828054610bf590613996565b8015610c425780601f10610c1757610100808354040283529160200191610c42565b820191906000526020600020905b815481529060010190602001808311610c2557829003601f168201915b50505050508152602001600482015481525050915050949350505050565b610c7b838383604051806020016040528060008152506116ef565b505050565b6000600860003373ffffffffffffffffffffffffffffffffffffffff1673ffffffffffffffffffffffffffffffffffffffff16815260200190815260200160002054905090565b6010548110610d0b576040517f08c379a0000000000000000000000000000000000000000000000000000000008152600401610d0290613d14565b60405180910390fd5b6000610d16826121f5565b90508060800151341015610d5f576040517f08c379a0000000000000000000000000000000000000000000000000000000008152600401610d5690613d80565b60405180910390fd5b600e600083815260200190815260200160002060020154610d9d6001600f60008681526020019081526020016000205461236490919063ffffffff16565b1115610dde576040517f08c379a0000000000000000000000000000000000000000000000000000000008152600401610dd590613dec565b60405180910390fd5b6000600b549050610dfb6001600b5461236490919063ffffffff16565b600b81905550610e0b33826123cd565b82600d600083815260200190815260200160002081905550610e4a6001600f60008681526020019081526020016000205461236490919063ffffffff16565b600f60008581526020019081526020016000208190555043600860003373ffffffffffffffffffffffffffffffffffffffff1673ffffffffffffffffffffffffffffffffffffffff16815260200190815260200160002081905550610eae8161131f565b505050565b610ebb6113d9565b610efa576040517f08c379a0000000000000000000000000000000000000000000000000000000008152600401610ef190613bc9565b60405180910390fd5b8060079080519060200190610f10929190612f38565b5050565b600080610f20836123eb565b9050600073ffffffffffffffffffffffffffffffffffffffff168173ffffffffffffffffffffffffffffffffffffffff1603610f91576040517f08c379a0000000000000000000000000000000000000000000000000000000008152600401610f8890613e58565b60405180910390fd5b80915050919050565b60008073ffffffffffffffffffffffffffffffffffffffff168273ffffffffffffffffffffffffffffffffffffffff160361100a576040517f08c379a000000000000000000000000000000000000000000000000000000000815260040161100190613eea565b60405180910390fd5b600460008373ffffffffffffffffffffffffffffffffffffffff1673ffffffffffffffffffffffffffffffffffffffff168152602001908152602001600020549050919050565b6110596113d9565b611098576040517f08c379a000000000000000000000000000000000000000000000000000000000815260040161108f90613bc9565b60405180910390fd5b600073ffffffffffffffffffffffffffffffffffffffff1660008054906101000a900473ffffffffffffffffffffffffffffffffffffffff1673ffffffffffffffffffffffffffffffffffffffff167f8be0079c531659141344cd1fd0a4f28419497f9722a3daafe3b4186f6b6457e060405160405180910390a360008060006101000a81548173ffffffffffffffffffffffffffffffffffffffff021916908373ffffffffffffffffffffffffffffffffffffffff160217905550565b61115e612f09565b6111666113d9565b6111a5576040517f08c379a000000000000000000000000000000000000000000000000000000000815260040161119c90613bc9565b60405180910390fd5b600e6000600d60008581526020019081526020016000205481526020019081526020016000206040518060a0016040529081600082015481526020016001820180546111f090613996565b80601f016020809104026020016040519081016040528092919081815260200182805461121c90613996565b80156112695780601f1061123e57610100808354040283529160200191611269565b820191906000526020600020905b81548152906001019060200180831161124c57829003601f168201915b505050505081526020016002820154815260200160038201805461128c90613996565b80601f01602080910402602001604051908101604052809291908181526020018280546112b890613996565b80156113055780601f106112da57610100808354040283529160200191611305565b820191906000526020600020905b8154815290600101906020018083116112e857829003601f168201915b505050505081526020016004820154815250509050919050565b3373ffffffffffffffffffffffffffffffffffffffff1661133f826123eb565b73ffffffffffffffffffffffffffffffffffffffff1614611395576040517f08c379a000000000000000000000000000000000000000000000000000000000815260040161138c90613f56565b60405180910390fd5b42601160008381526020019081526020016000208190555050565b60008060009054906101000a900473ffffffffffffffffffffffffffffffffffffffff16905090565b60008060009054906101000a900473ffffffffffffffffffffffffffffffffffffffff1673ffffffffffffffffffffffffffffffffffffffff163373ffffffffffffffffffffffffffffffffffffffff1614905090565b60606002805461143f90613996565b80601f016020809104026020016040519081016040528092919081815260200182805461146b90613996565b80156114b85780601f1061148d576101008083540402835291602001916114b8565b820191906000526020600020905b81548152906001019060200180831161149b57829003601f168201915b5050505050905090565b6114d46114cd611daa565b8383612428565b5050565b6114e0612f09565b6114e86113d9565b611527576040517f08c379a000000000000000000000000000000000000000000000000000000000815260040161151e90613bc9565b60405180910390fd5b600e60008381526020019081526020016000206040518060a00160405290816000820154815260200160018201805461155f90613996565b80601f016020809104026020016040519081016040528092919081815260200182805461158b90613996565b80156115d85780601f106115ad576101008083540402835291602001916115d8565b820191906000526020600020905b8154815290600101906020018083116115bb57829003601f168201915b50505050508152602001600282015481526020016003820180546115fb90613996565b80601f016020809104026020016040519081016040528092919081815260200182805461162790613996565b80156116745780601f1061164957610100808354040283529160200191611674565b820191906000526020600020905b81548152906001019060200180831161165757829003601f168201915b505050505081526020016004820154815250509050919050565b6116966113d9565b6116d5576040517f08c379a00000000000000000000000000000000000000000000000000000000081526004016116cc90613bc9565b60405180910390fd5b80600290805190602001906116eb929190612f38565b5050565b6117006116fa611daa565b83611e6b565b61173f576040517f08c379a000000000000000000000000000000000000000000000000000000000815260040161173690613b5d565b60405180910390fd5b61174b84848484612594565b50505050565b6117596113d9565b611798576040517f08c379a000000000000000000000000000000000000000000000000000000000815260040161178f90613bc9565b60405180910390fd5b80600190805190602001906117ae929190612f38565b5050565b606060006117bf836125f0565b90506000600e6000600d60008781526020019081526020016000205481526020019081526020016000206040518060a00160405290816000820154815260200160018201805461180e90613996565b80601f016020809104026020016040519081016040528092919081815260200182805461183a90613996565b80156118875780601f1061185c57610100808354040283529160200191611887565b820191906000526020600020905b81548152906001019060200180831161186a57829003601f168201915b50505050508152602001600282015481526020016003820180546118aa90613996565b80601f01602080910402602001604051908101604052809291908181526020018280546118d690613996565b80156119235780601f106118f857610100808354040283529160200191611923565b820191906000526020600020905b81548152906001019060200180831161190657829003601f168201915b5050505050815260200160048201548152505090506000828260600151604051602001611951929190613fb2565b6040516020818303038152906040526119698661262f565b60405160200161197a929190613fb2565b6040516020818303038152906040526040516020016119999190614022565b604051602081830303815290604052905060008151116119c857604051806020016040528060008152506119ca565b805b9350505050919050565b60006119de6113d9565b611a1d576040517f08c379a0000000000000000000000000000000000000000000000000000000008152600401611a1490613bc9565b60405180910390fd5b600f6000838152602001908152602001600020549050919050565b611a406113d9565b611a7f576040517f08c379a0000000000000000000000000000000000000000000000000000000008152600401611a7690613bc9565b60405180910390fd5b6040518060a00160405280868152602001858152602001848152602001838152602001600c5483611ab09190613c6e565b815250600e6000878152602001908152602001600020600082015181600001556020820151816001019080519060200190611aec929190612f38565b50604082015181600201556060820151816003019080519060200190611b13929190612f38565b50608082015181600401559050505050505050565b600060116000838152602001908152602001600020549050919050565b6000600660008473ffffffffffffffffffffffffffffffffffffffff1673ffffffffffffffffffffffffffffffffffffffff16815260200190815260200160002060008373ffffffffffffffffffffffffffffffffffffffff1673ffffffffffffffffffffffffffffffffffffffff16815260200190815260200160002060009054906101000a900460ff16905092915050565b611be16113d9565b611c20576040517f08c379a0000000000000000000000000000000000000000000000000000000008152600401611c1790613bc9565b60405180910390fd5b611c29816126fd565b50565b6000611c366113d9565b611c75576040517f08c379a0000000000000000000000000000000000000000000000000000000008152600401611c6c90613bc9565b60405180910390fd5b601054905090565b60007f80ac58cd000000000000000000000000000000000000000000000000000000007bffffffffffffffffffffffffffffffffffffffffffffffffffffffff1916827bffffffffffffffffffffffffffffffffffffffffffffffffffffffff19161480611d4857507f5b5e139f000000000000000000000000000000000000000000000000000000007bffffffffffffffffffffffffffffffffffffffffffffffffffffffff1916827bffffffffffffffffffffffffffffffffffffffffffffffffffffffff1916145b80611d585750611d5782612829565b5b9050919050565b611d6881612893565b611da7576040517f08c379a0000000000000000000000000000000000000000000000000000000008152600401611d9e90613e58565b60405180910390fd5b50565b600033905090565b816005600083815260200190815260200160002060006101000a81548173ffffffffffffffffffffffffffffffffffffffff021916908373ffffffffffffffffffffffffffffffffffffffff160217905550808273ffffffffffffffffffffffffffffffffffffffff16611e2583610f14565b73ffffffffffffffffffffffffffffffffffffffff167f8c5be1e5ebec7d5bd14f71427d1e84f3dd0314c0f7b2291e5b200ac8c7c3b92560405160405180910390a45050565b600080611e7783610f14565b90508073ffffffffffffffffffffffffffffffffffffffff168473ffffffffffffffffffffffffffffffffffffffff161480611eb95750611eb88185611b45565b5b80611ef757508373ffffffffffffffffffffffffffffffffffffffff16611edf8461080d565b73ffffffffffffffffffffffffffffffffffffffff16145b91505092915050565b8273ffffffffffffffffffffffffffffffffffffffff16611f2082610f14565b73ffffffffffffffffffffffffffffffffffffffff1614611f76576040517f08c379a0000000000000000000000000000000000000000000000000000000008152600401611f6d906140b6565b60405180910390fd5b600073ffffffffffffffffffffffffffffffffffffffff168273ffffffffffffffffffffffffffffffffffffffff1603611fe5576040517f08c379a0000000000000000000000000000000000000000000000000000000008152600401611fdc90614148565b60405180910390fd5b611ff08383836128d4565b8273ffffffffffffffffffffffffffffffffffffffff1661201082610f14565b73ffffffffffffffffffffffffffffffffffffffff1614612066576040517f08c379a000000000000000000000000000000000000000000000000000000000815260040161205d906140b6565b60405180910390fd5b6005600082815260200190815260200160002060006101000a81549073ffffffffffffffffffffffffffffffffffffffff02191690556001600460008573ffffffffffffffffffffffffffffffffffffffff1673ffffffffffffffffffffffffffffffffffffffff168152602001908152602001600020600082825403925050819055506001600460008473ffffffffffffffffffffffffffffffffffffffff1673ffffffffffffffffffffffffffffffffffffffff16815260200190815260200160002060008282540192505081905550816003600083815260200190815260200160002060006101000a81548173ffffffffffffffffffffffffffffffffffffffff021916908373ffffffffffffffffffffffffffffffffffffffff160217905550808273ffffffffffffffffffffffffffffffffffffffff168473ffffffffffffffffffffffffffffffffffffffff167fddf252ad1be2c89b69c2b068fc378daa952ba7f163c4a11628f55a4df523b3ef60405160405180910390a46121f08383836128fc565b505050565b6121fd612f09565b600e60008381526020019081526020016000206040518060a00160405290816000820154815260200160018201805461223590613996565b80601f016020809104026020016040519081016040528092919081815260200182805461226190613996565b80156122ae5780601f10612283576101008083540402835291602001916122ae565b820191906000526020600020905b81548152906001019060200180831161229157829003601f168201915b50505050508152602001600282015481526020016003820180546122d190613996565b80601f01602080910402602001604051908101604052809291908181526020018280546122fd90613996565b801561234a5780601f1061231f5761010080835404028352916020019161234a565b820191906000526020600020905b81548152906001019060200180831161232d57829003601f168201915b505050505081526020016004820154815250509050919050565b60008082846123739190613c18565b9050838110156123b8576040517f08c379a00000000000000000000000000000000000000000000000000000000081526004016123af906141b4565b60405180910390fd5b82846123c49190613c18565b91505092915050565b6123e7828260405180602001604052806000815250612901565b5050565b60006003600083815260200190815260200160002060009054906101000a900473ffffffffffffffffffffffffffffffffffffffff169050919050565b8173ffffffffffffffffffffffffffffffffffffffff168373ffffffffffffffffffffffffffffffffffffffff1603612496576040517f08c379a000000000000000000000000000000000000000000000000000000000815260040161248d90614220565b60405180910390fd5b80600660008573ffffffffffffffffffffffffffffffffffffffff1673ffffffffffffffffffffffffffffffffffffffff16815260200190815260200160002060008473ffffffffffffffffffffffffffffffffffffffff1673ffffffffffffffffffffffffffffffffffffffff16815260200190815260200160002060006101000a81548160ff0219169083151502179055508173ffffffffffffffffffffffffffffffffffffffff168373ffffffffffffffffffffffffffffffffffffffff167f17307eab39ab6107e8899845ad3d59bd9653f200f220920489ca2b5937696c3183604051612587919061308f565b60405180910390a3505050565b61259f848484611f00565b6125ab8484848461295c565b6125ea576040517f08c379a00000000000000000000000000000000000000000000000000000000081526004016125e1906142b2565b60405180910390fd5b50505050565b60606125fb82611d5f565b6000612605612ae3565b905060008151116126255760405180602001604052806000815250612627565b805b915050919050565b60606000600161263e84612b75565b01905060008167ffffffffffffffff81111561265d5761265c6132ed565b5b6040519080825280601f01601f19166020018201604052801561268f5781602001600182028036833780820191505090505b509050600082602001820190505b6001156126f2578080600190039150507f3031323334353637383961626364656600000000000000000000000000000000600a86061a8153600a85816126e6576126e56142d2565b5b0494506000850361269d575b819350505050919050565b600073ffffffffffffffffffffffffffffffffffffffff168173ffffffffffffffffffffffffffffffffffffffff160361276c576040517f08c379a000000000000000000000000000000000000000000000000000000000815260040161276390614373565b60405180910390fd5b8073ffffffffffffffffffffffffffffffffffffffff1660008054906101000a900473ffffffffffffffffffffffffffffffffffffffff1673ffffffffffffffffffffffffffffffffffffffff167f8be0079c531659141344cd1fd0a4f28419497f9722a3daafe3b4186f6b6457e060405160405180910390a3806000806101000a81548173ffffffffffffffffffffffffffffffffffffffff021916908373ffffffffffffffffffffffffffffffffffffffff16021790555050565b60007f01ffc9a7000000000000000000000000000000000000000000000000000000007bffffffffffffffffffffffffffffffffffffffffffffffffffffffff1916827bffffffffffffffffffffffffffffffffffffffffffffffffffffffff1916149050919050565b60008073ffffffffffffffffffffffffffffffffffffffff166128b5836123eb565b73ffffffffffffffffffffffffffffffffffffffff1614159050919050565b4260116000838152602001908152602001600020819055506128f7838383612cc8565b505050565b505050565b61290b8383612ccd565b612918600084848461295c565b612957576040517f08c379a000000000000000000000000000000000000000000000000000000000815260040161294e906142b2565b60405180910390fd5b505050565b600061297d8473ffffffffffffffffffffffffffffffffffffffff16612ee6565b15612ad6578373ffffffffffffffffffffffffffffffffffffffff1663150b7a026129a6611daa565b8786866040518563ffffffff1660e01b81526004016129c894939291906143e8565b6020604051808303816000875af1925050508015612a0457506040513d601f19601f82011682018060405250810190612a019190614449565b60015b612a86573d8060008114612a34576040519150601f19603f3d011682016040523d82523d6000602084013e612a39565b606091505b506000815103612a7e576040517f08c379a0000000000000000000000000000000000000000000000000000000008152600401612a75906142b2565b60405180910390fd5b805181602001fd5b63150b7a0260e01b7bffffffffffffffffffffffffffffffffffffffffffffffffffffffff1916817bffffffffffffffffffffffffffffffffffffffffffffffffffffffff191614915050612adb565b600190505b949350505050565b606060078054612af290613996565b80601f0160208091040260200160405190810160405280929190818152602001828054612b1e90613996565b8015612b6b5780601f10612b4057610100808354040283529160200191612b6b565b820191906000526020600020905b815481529060010190602001808311612b4e57829003601f168201915b5050505050905090565b600080600090507a184f03e93ff9f4daa797ed6e38ed64bf6a1f0100000000000000008310612bd3577a184f03e93ff9f4daa797ed6e38ed64bf6a1f0100000000000000008381612bc957612bc86142d2565b5b0492506040810190505b6d04ee2d6d415b85acef81000000008310612c10576d04ee2d6d415b85acef81000000008381612c0657612c056142d2565b5b0492506020810190505b662386f26fc100008310612c3f57662386f26fc100008381612c3557612c346142d2565b5b0492506010810190505b6305f5e1008310612c68576305f5e1008381612c5e57612c5d6142d2565b5b0492506008810190505b6127108310612c8d576127108381612c8357612c826142d2565b5b0492506004810190505b60648310612cb05760648381612ca657612ca56142d2565b5b0492506002810190505b600a8310612cbf576001810190505b80915050919050565b505050565b600073ffffffffffffffffffffffffffffffffffffffff168273ffffffffffffffffffffffffffffffffffffffff1603612d3c576040517f08c379a0000000000000000000000000000000000000000000000000000000008152600401612d33906144c2565b60405180910390fd5b612d4581612893565b15612d85576040517f08c379a0000000000000000000000000000000000000000000000000000000008152600401612d7c9061452e565b60405180910390fd5b612d91600083836128d4565b612d9a81612893565b15612dda576040517f08c379a0000000000000000000000000000000000000000000000000000000008152600401612dd19061452e565b60405180910390fd5b6001600460008473ffffffffffffffffffffffffffffffffffffffff1673ffffffffffffffffffffffffffffffffffffffff16815260200190815260200160002060008282540192505081905550816003600083815260200190815260200160002060006101000a81548173ffffffffffffffffffffffffffffffffffffffff021916908373ffffffffffffffffffffffffffffffffffffffff160217905550808273ffffffffffffffffffffffffffffffffffffffff16600073ffffffffffffffffffffffffffffffffffffffff167fddf252ad1be2c89b69c2b068fc378daa952ba7f163c4a11628f55a4df523b3ef60405160405180910390a4612ee2600083836128fc565b5050565b6000808273ffffffffffffffffffffffffffffffffffffffff163b119050919050565b6040518060a0016040528060008152602001606081526020016000815260200160608152602001600081525090565b828054612f4490613996565b90600052602060002090601f016020900481019282612f665760008555612fad565b82601f10612f7f57805160ff1916838001178555612fad565b82800160010185558215612fad579182015b82811115612fac578251825591602001919060010190612f91565b5b509050612fba9190612fbe565b5090565b5b80821115612fd7576000816000905550600101612fbf565b5090565b6000604051905090565b600080fd5b600080fd5b60007fffffffff0000000000000000000000000000000000000000000000000000000082169050919050565b61302481612fef565b811461302f57600080fd5b50565b6000813590506130418161301b565b92915050565b60006020828403121561305d5761305c612fe5565b5b600061306b84828501613032565b91505092915050565b60008115159050919050565b61308981613074565b82525050565b60006020820190506130a46000830184613080565b92915050565b600081519050919050565b600082825260208201905092915050565b60005b838110156130e45780820151818401526020810190506130c9565b838111156130f3576000848401525b50505050565b6000601f19601f8301169050919050565b6000613115826130aa565b61311f81856130b5565b935061312f8185602086016130c6565b613138816130f9565b840191505092915050565b6000602082019050818103600083015261315d818461310a565b905092915050565b6000819050919050565b61317881613165565b811461318357600080fd5b50565b6000813590506131958161316f565b92915050565b6000602082840312156131b1576131b0612fe5565b5b60006131bf84828501613186565b91505092915050565b600073ffffffffffffffffffffffffffffffffffffffff82169050919050565b60006131f3826131c8565b9050919050565b613203816131e8565b82525050565b600060208201905061321e60008301846131fa565b92915050565b61322d816131e8565b811461323857600080fd5b50565b60008135905061324a81613224565b92915050565b6000806040838503121561326757613266612fe5565b5b60006132758582860161323b565b925050602061328685828601613186565b9150509250929050565b6000806000606084860312156132a9576132a8612fe5565b5b60006132b78682870161323b565b93505060206132c88682870161323b565b92505060406132d986828701613186565b9150509250925092565b600080fd5b600080fd5b7f4e487b7100000000000000000000000000000000000000000000000000000000600052604160045260246000fd5b613325826130f9565b810181811067ffffffffffffffff82111715613344576133436132ed565b5b80604052505050565b6000613357612fdb565b9050613363828261331c565b919050565b600067ffffffffffffffff821115613383576133826132ed565b5b61338c826130f9565b9050602081019050919050565b82818337600083830152505050565b60006133bb6133b684613368565b61334d565b9050828152602081018484840111156133d7576133d66132e8565b5b6133e2848285613399565b509392505050565b600082601f8301126133ff576133fe6132e3565b5b813561340f8482602086016133a8565b91505092915050565b6000806000806080858703121561343257613431612fe5565b5b600085013567ffffffffffffffff8111156134505761344f612fea565b5b61345c878288016133ea565b945050602061346d87828801613186565b935050604085013567ffffffffffffffff81111561348e5761348d612fea565b5b61349a878288016133ea565b92505060606134ab87828801613186565b91505092959194509250565b6134c081613165565b82525050565b600082825260208201905092915050565b60006134e2826130aa565b6134ec81856134c6565b93506134fc8185602086016130c6565b613505816130f9565b840191505092915050565b600060a08301600083015161352860008601826134b7565b506020830151848203602086015261354082826134d7565b915050604083015161355560408601826134b7565b506060830151848203606086015261356d82826134d7565b915050608083015161358260808601826134b7565b508091505092915050565b600060208201905081810360008301526135a78184613510565b905092915050565b6135b881613165565b82525050565b60006020820190506135d360008301846135af565b92915050565b6000602082840312156135ef576135ee612fe5565b5b600082013567ffffffffffffffff81111561360d5761360c612fea565b5b613619848285016133ea565b91505092915050565b60006020828403121561363857613637612fe5565b5b60006136468482850161323b565b91505092915050565b600061365a826131c8565b9050919050565b61366a8161364f565b82525050565b60006020820190506136856000830184613661565b92915050565b61369481613074565b811461369f57600080fd5b50565b6000813590506136b18161368b565b92915050565b600080604083850312156136ce576136cd612fe5565b5b60006136dc8582860161323b565b92505060206136ed858286016136a2565b9150509250929050565b600067ffffffffffffffff821115613712576137116132ed565b5b61371b826130f9565b9050602081019050919050565b600061373b613736846136f7565b61334d565b905082815260208101848484011115613757576137566132e8565b5b613762848285613399565b509392505050565b600082601f83011261377f5761377e6132e3565b5b813561378f848260208601613728565b91505092915050565b600080600080608085870312156137b2576137b1612fe5565b5b60006137c08782880161323b565b94505060206137d18782880161323b565b93505060406137e287828801613186565b925050606085013567ffffffffffffffff81111561380357613802612fea565b5b61380f8782880161376a565b91505092959194509250565b600080600080600060a0868803121561383757613836612fe5565b5b600061384588828901613186565b955050602086013567ffffffffffffffff81111561386657613865612fea565b5b613872888289016133ea565b945050604061388388828901613186565b935050606086013567ffffffffffffffff8111156138a4576138a3612fea565b5b6138b0888289016133ea565b92505060806138c188828901613186565b9150509295509295909350565b600080604083850312156138e5576138e4612fe5565b5b60006138f38582860161323b565b92505060206139048582860161323b565b9150509250929050565b6139178161364f565b811461392257600080fd5b50565b6000813590506139348161390e565b92915050565b6000602082840312156139505761394f612fe5565b5b600061395e84828501613925565b91505092915050565b7f4e487b7100000000000000000000000000000000000000000000000000000000600052602260045260246000fd5b600060028204905060018216806139ae57607f821691505b6020821081036139c1576139c0613967565b5b50919050565b7f4552433732313a20617070726f76616c20746f2063757272656e74206f776e6560008201527f7200000000000000000000000000000000000000000000000000000000000000602082015250565b6000613a236021836130b5565b9150613a2e826139c7565b604082019050919050565b60006020820190508181036000830152613a5281613a16565b9050919050565b7f4552433732313a20617070726f76652063616c6c6572206973206e6f7420746f60008201527f6b656e206f776e6572206f7220617070726f76656420666f7220616c6c000000602082015250565b6000613ab5603d836130b5565b9150613ac082613a59565b604082019050919050565b60006020820190508181036000830152613ae481613aa8565b9050919050565b7f4552433732313a2063616c6c6572206973206e6f7420746f6b656e206f776e6560008201527f72206f7220617070726f76656400000000000000000000000000000000000000602082015250565b6000613b47602d836130b5565b9150613b5282613aeb565b604082019050919050565b60006020820190508181036000830152613b7681613b3a565b9050919050565b7f4f776e61626c653a2063616c6c6572206973206e6f7420746865206f776e6572600082015250565b6000613bb36020836130b5565b9150613bbe82613b7d565b602082019050919050565b60006020820190508181036000830152613be281613ba6565b9050919050565b7f4e487b7100000000000000000000000000000000000000000000000000000000600052601160045260246000fd5b6000613c2382613165565b9150613c2e83613165565b9250827fffffffffffffffffffffffffffffffffffffffffffffffffffffffffffffffff03821115613c6357613c62613be9565b5b828201905092915050565b6000613c7982613165565b9150613c8483613165565b9250817fffffffffffffffffffffffffffffffffffffffffffffffffffffffffffffffff0483118215151615613cbd57613cbc613be9565b5b828202905092915050565b7f4974206973206e6f7420657869737420666c6f77657220547970650000000000600082015250565b6000613cfe601b836130b5565b9150613d0982613cc8565b602082019050919050565b60006020820190508181036000830152613d2d81613cf1565b9050919050565b7f4e6f7420656e6f75676820657468000000000000000000000000000000000000600082015250565b6000613d6a600e836130b5565b9150613d7582613d34565b602082019050919050565b60006020820190508181036000830152613d9981613d5d565b9050919050565b7f457863656564206d617820616d6f756e74000000000000000000000000000000600082015250565b6000613dd66011836130b5565b9150613de182613da0565b602082019050919050565b60006020820190508181036000830152613e0581613dc9565b9050919050565b7f4552433732313a20696e76616c696420746f6b656e2049440000000000000000600082015250565b6000613e426018836130b5565b9150613e4d82613e0c565b602082019050919050565b60006020820190508181036000830152613e7181613e35565b9050919050565b7f4552433732313a2061646472657373207a65726f206973206e6f74206120766160008201527f6c6964206f776e65720000000000000000000000000000000000000000000000602082015250565b6000613ed46029836130b5565b9150613edf82613e78565b604082019050919050565b60006020820190508181036000830152613f0381613ec7565b9050919050565b7f4f6e6c7920746865206f776e65722063616e206368616e676500000000000000600082015250565b6000613f406019836130b5565b9150613f4b82613f0a565b602082019050919050565b60006020820190508181036000830152613f6f81613f33565b9050919050565b600081905092915050565b6000613f8c826130aa565b613f968185613f76565b9350613fa68185602086016130c6565b80840191505092915050565b6000613fbe8285613f81565b9150613fca8284613f81565b91508190509392505050565b7f2e6a736f6e000000000000000000000000000000000000000000000000000000600082015250565b600061400c600583613f76565b915061401782613fd6565b600582019050919050565b600061402e8284613f81565b915061403982613fff565b915081905092915050565b7f4552433732313a207472616e736665722066726f6d20696e636f72726563742060008201527f6f776e6572000000000000000000000000000000000000000000000000000000602082015250565b60006140a06025836130b5565b91506140ab82614044565b604082019050919050565b600060208201905081810360008301526140cf81614093565b9050919050565b7f4552433732313a207472616e7366657220746f20746865207a65726f2061646460008201527f7265737300000000000000000000000000000000000000000000000000000000602082015250565b60006141326024836130b5565b915061413d826140d6565b604082019050919050565b6000602082019050818103600083015261416181614125565b9050919050565b7f536166654d617468203a2061646474696f6e206f766572666c6f770000000000600082015250565b600061419e601b836130b5565b91506141a982614168565b602082019050919050565b600060208201905081810360008301526141cd81614191565b9050919050565b7f4552433732313a20617070726f766520746f2063616c6c657200000000000000600082015250565b600061420a6019836130b5565b9150614215826141d4565b602082019050919050565b60006020820190508181036000830152614239816141fd565b9050919050565b7f4552433732313a207472616e7366657220746f206e6f6e20455243373231526560008201527f63656976657220696d706c656d656e7465720000000000000000000000000000602082015250565b600061429c6032836130b5565b91506142a782614240565b604082019050919050565b600060208201905081810360008301526142cb8161428f565b9050919050565b7f4e487b7100000000000000000000000000000000000000000000000000000000600052601260045260246000fd5b7f4f776e61626c653a206e6577206f776e657220697320746865207a65726f206160008201527f6464726573730000000000000000000000000000000000000000000000000000602082015250565b600061435d6026836130b5565b915061436882614301565b604082019050919050565b6000602082019050818103600083015261438c81614350565b9050919050565b600081519050919050565b600082825260208201905092915050565b60006143ba82614393565b6143c4818561439e565b93506143d48185602086016130c6565b6143dd816130f9565b840191505092915050565b60006080820190506143fd60008301876131fa565b61440a60208301866131fa565b61441760408301856135af565b818103606083015261442981846143af565b905095945050505050565b6000815190506144438161301b565b92915050565b60006020828403121561445f5761445e612fe5565b5b600061446d84828501614434565b91505092915050565b7f4552433732313a206d696e7420746f20746865207a65726f2061646472657373600082015250565b60006144ac6020836130b5565b91506144b782614476565b602082019050919050565b600060208201905081810360008301526144db8161449f565b9050919050565b7f4552433732313a20746f6b656e20616c7265616479206d696e74656400000000600082015250565b6000614518601c836130b5565b9150614523826144e2565b602082019050919050565b600060208201905081810360008301526145478161450b565b905091905056fea2646970667358221220d90444c6f3232b32bf812528bbc37ae37903136f112db7c5cade70e938cb973764736f6c634300080d0033",
  "immutableReferences": {},
  "source": "pragma solidity ^0.8.0;\r\n \r\n\r\nabstract contract Context {\r\n    function _msgSender() internal view virtual returns (address) {\r\n        return msg.sender;\r\n    }\r\n\r\n    function _msgData() internal view virtual returns (bytes calldata) {\r\n        return msg.data;\r\n    }\r\n}\r\n\r\nlibrary Math {\r\n    enum Rounding {\r\n        Down, // Toward negative infinity\r\n        Up, // Toward infinity\r\n        Zero // Toward zero\r\n    }\r\n     function max(uint256 a, uint256 b) internal pure returns (uint256) {\r\n        return a > b ? a : b;\r\n    }\r\n    function min(uint256 a, uint256 b) internal pure returns (uint256) {\r\n        return a < b ? a : b;\r\n    }\r\n    function average(uint256 a, uint256 b) internal pure returns (uint256) {\r\n        // (a + b) / 2 can overflow.\r\n        return (a & b) + (a ^ b) / 2;\r\n    }\r\n    function ceilDiv(uint256 a, uint256 b) internal pure returns (uint256) {\r\n        // (a + b - 1) / b can overflow on addition, so we distribute.\r\n        return a == 0 ? 0 : (a - 1) / b + 1;\r\n    }\r\n    function mulDiv(\r\n        uint256 x,\r\n        uint256 y,\r\n        uint256 denominator\r\n    ) internal pure returns (uint256 result) {\r\n        unchecked {\r\n            // 512-bit multiply [prod1 prod0] = x * y. Compute the product mod 2^256 and mod 2^256 - 1, then use\r\n            // use the Chinese Remainder Theorem to reconstruct the 512 bit result. The result is stored in two 256\r\n            // variables such that product = prod1 * 2^256 + prod0.\r\n            uint256 prod0; // Least significant 256 bits of the product\r\n            uint256 prod1; // Most significant 256 bits of the product\r\n            assembly {\r\n                let mm := mulmod(x, y, not(0))\r\n                prod0 := mul(x, y)\r\n                prod1 := sub(sub(mm, prod0), lt(mm, prod0))\r\n            }\r\n\r\n            // Handle non-overflow cases, 256 by 256 division.\r\n            if (prod1 == 0) {\r\n                return prod0 / denominator;\r\n            }\r\n\r\n            // Make sure the result is less than 2^256. Also prevents denominator == 0.\r\n            require(denominator > prod1);\r\n\r\n            ///////////////////////////////////////////////\r\n            // 512 by 256 division.\r\n            ///////////////////////////////////////////////\r\n\r\n            // Make division exact by subtracting the remainder from [prod1 prod0].\r\n            uint256 remainder;\r\n            assembly {\r\n                // Compute remainder using mulmod.\r\n                remainder := mulmod(x, y, denominator)\r\n\r\n                // Subtract 256 bit number from 512 bit number.\r\n                prod1 := sub(prod1, gt(remainder, prod0))\r\n                prod0 := sub(prod0, remainder)\r\n            }\r\n\r\n            // Factor powers of two out of denominator and compute largest power of two divisor of denominator. Always >= 1.\r\n            // See https://cs.stackexchange.com/q/138556/92363.\r\n\r\n            // Does not overflow because the denominator cannot be zero at this stage in the function.\r\n            uint256 twos = denominator & (~denominator + 1);\r\n            assembly {\r\n                // Divide denominator by twos.\r\n                denominator := div(denominator, twos)\r\n\r\n                // Divide [prod1 prod0] by twos.\r\n                prod0 := div(prod0, twos)\r\n\r\n                // Flip twos such that it is 2^256 / twos. If twos is zero, then it becomes one.\r\n                twos := add(div(sub(0, twos), twos), 1)\r\n            }\r\n\r\n            // Shift in bits from prod1 into prod0.\r\n            prod0 |= prod1 * twos;\r\n\r\n            // Invert denominator mod 2^256. Now that denominator is an odd number, it has an inverse modulo 2^256 such\r\n            // that denominator * inv = 1 mod 2^256. Compute the inverse by starting with a seed that is correct for\r\n            // four bits. That is, denominator * inv = 1 mod 2^4.\r\n            uint256 inverse = (3 * denominator) ^ 2;\r\n\r\n            // Use the Newton-Raphson iteration to improve the precision. Thanks to Hensel's lifting lemma, this also works\r\n            // in modular arithmetic, doubling the correct bits in each step.\r\n            inverse *= 2 - denominator * inverse; // inverse mod 2^8\r\n            inverse *= 2 - denominator * inverse; // inverse mod 2^16\r\n            inverse *= 2 - denominator * inverse; // inverse mod 2^32\r\n            inverse *= 2 - denominator * inverse; // inverse mod 2^64\r\n            inverse *= 2 - denominator * inverse; // inverse mod 2^128\r\n            inverse *= 2 - denominator * inverse; // inverse mod 2^256\r\n\r\n            // Because the division is now exact we can divide by multiplying with the modular inverse of denominator.\r\n            // This will give us the correct result modulo 2^256. Since the preconditions guarantee that the outcome is\r\n            // less than 2^256, this is the final result. We don't need to compute the high bits of the result and prod1\r\n            // is no longer required.\r\n            result = prod0 * inverse;\r\n            return result;\r\n        }\r\n    }\r\n\r\n    /**\r\n     * @notice Calculates x * y / denominator with full precision, following the selected rounding direction.\r\n     */\r\n    function mulDiv(\r\n        uint256 x,\r\n        uint256 y,\r\n        uint256 denominator,\r\n        Rounding rounding\r\n    ) internal pure returns (uint256) {\r\n        uint256 result = mulDiv(x, y, denominator);\r\n        if (rounding == Rounding.Up && mulmod(x, y, denominator) > 0) {\r\n            result += 1;\r\n        }\r\n        return result;\r\n    }\r\n\r\n    /**\r\n     * @dev Returns the square root of a number. If the number is not a perfect square, the value is rounded down.\r\n     *\r\n     * Inspired by Henry S. Warren, Jr.'s \"Hacker's Delight\" (Chapter 11).\r\n     */\r\n    function sqrt(uint256 a) internal pure returns (uint256) {\r\n        if (a == 0) {\r\n            return 0;\r\n        }\r\n        uint256 result = 1 << (log2(a) >> 1);\r\n        unchecked {\r\n            result = (result + a / result) >> 1;\r\n            result = (result + a / result) >> 1;\r\n            result = (result + a / result) >> 1;\r\n            result = (result + a / result) >> 1;\r\n            result = (result + a / result) >> 1;\r\n            result = (result + a / result) >> 1;\r\n            result = (result + a / result) >> 1;\r\n            return min(result, a / result);\r\n        }\r\n    }\r\n\r\n    /**\r\n     * @notice Calculates sqrt(a), following the selected rounding direction.\r\n     */\r\n    function sqrt(uint256 a, Rounding rounding) internal pure returns (uint256) {\r\n        unchecked {\r\n            uint256 result = sqrt(a);\r\n            return result + (rounding == Rounding.Up && result * result < a ? 1 : 0);\r\n        }\r\n    }\r\n\r\n    /**\r\n     * @dev Return the log in base 2, rounded down, of a positive value.\r\n     * Returns 0 if given 0.\r\n     */\r\n    function log2(uint256 value) internal pure returns (uint256) {\r\n        uint256 result = 0;\r\n        unchecked {\r\n            if (value >> 128 > 0) {\r\n                value >>= 128;\r\n                result += 128;\r\n            }\r\n            if (value >> 64 > 0) {\r\n                value >>= 64;\r\n                result += 64;\r\n            }\r\n            if (value >> 32 > 0) {\r\n                value >>= 32;\r\n                result += 32;\r\n            }\r\n            if (value >> 16 > 0) {\r\n                value >>= 16;\r\n                result += 16;\r\n            }\r\n            if (value >> 8 > 0) {\r\n                value >>= 8;\r\n                result += 8;\r\n            }\r\n            if (value >> 4 > 0) {\r\n                value >>= 4;\r\n                result += 4;\r\n            }\r\n            if (value >> 2 > 0) {\r\n                value >>= 2;\r\n                result += 2;\r\n            }\r\n            if (value >> 1 > 0) {\r\n                result += 1;\r\n            }\r\n        }\r\n        return result;\r\n    }\r\n\r\n    /**\r\n     * @dev Return the log in base 2, following the selected rounding direction, of a positive value.\r\n     * Returns 0 if given 0.\r\n     */\r\n    function log2(uint256 value, Rounding rounding) internal pure returns (uint256) {\r\n        unchecked {\r\n            uint256 result = log2(value);\r\n            return result + (rounding == Rounding.Up && 1 << result < value ? 1 : 0);\r\n        }\r\n    }\r\n\r\n    /**\r\n     * @dev Return the log in base 10, rounded down, of a positive value.\r\n     * Returns 0 if given 0.\r\n     */\r\n    function log10(uint256 value) internal pure returns (uint256) {\r\n        uint256 result = 0;\r\n        unchecked {\r\n            if (value >= 10**64) {\r\n                value /= 10**64;\r\n                result += 64;\r\n            }\r\n            if (value >= 10**32) {\r\n                value /= 10**32;\r\n                result += 32;\r\n            }\r\n            if (value >= 10**16) {\r\n                value /= 10**16;\r\n                result += 16;\r\n            }\r\n            if (value >= 10**8) {\r\n                value /= 10**8;\r\n                result += 8;\r\n            }\r\n            if (value >= 10**4) {\r\n                value /= 10**4;\r\n                result += 4;\r\n            }\r\n            if (value >= 10**2) {\r\n                value /= 10**2;\r\n                result += 2;\r\n            }\r\n            if (value >= 10**1) {\r\n                result += 1;\r\n            }\r\n        }\r\n        return result;\r\n    }\r\n\r\n    /**\r\n     * @dev Return the log in base 10, following the selected rounding direction, of a positive value.\r\n     * Returns 0 if given 0.\r\n     */\r\n    function log10(uint256 value, Rounding rounding) internal pure returns (uint256) {\r\n        unchecked {\r\n            uint256 result = log10(value);\r\n            return result + (rounding == Rounding.Up && 10**result < value ? 1 : 0);\r\n        }\r\n    }\r\n\r\n    /**\r\n     * @dev Return the log in base 256, rounded down, of a positive value.\r\n     * Returns 0 if given 0.\r\n     *\r\n     * Adding one to the result gives the number of pairs of hex symbols needed to represent `value` as a hex string.\r\n     */\r\n    function log256(uint256 value) internal pure returns (uint256) {\r\n        uint256 result = 0;\r\n        unchecked {\r\n            if (value >> 128 > 0) {\r\n                value >>= 128;\r\n                result += 16;\r\n            }\r\n            if (value >> 64 > 0) {\r\n                value >>= 64;\r\n                result += 8;\r\n            }\r\n            if (value >> 32 > 0) {\r\n                value >>= 32;\r\n                result += 4;\r\n            }\r\n            if (value >> 16 > 0) {\r\n                value >>= 16;\r\n                result += 2;\r\n            }\r\n            if (value >> 8 > 0) {\r\n                result += 1;\r\n            }\r\n        }\r\n        return result;\r\n    }\r\n\r\n    /**\r\n     * @dev Return the log in base 10, following the selected rounding direction, of a positive value.\r\n     * Returns 0 if given 0.\r\n     */\r\n    function log256(uint256 value, Rounding rounding) internal pure returns (uint256) {\r\n        unchecked {\r\n            uint256 result = log256(value);\r\n            return result + (rounding == Rounding.Up && 1 << (result << 3) < value ? 1 : 0);\r\n        }\r\n    }\r\n}\r\n\r\nlibrary SafeMath {\r\n \r\n    function tryAdd(uint256 a, uint256 b) internal pure returns (bool, uint256) {\r\n        unchecked {\r\n            uint256 c = a + b;\r\n            if (c < a) return (false, 0);\r\n            return (true, c);\r\n        }\r\n    }\r\n \r\n    function trySub(uint256 a, uint256 b) internal pure returns (bool, uint256) {\r\n        unchecked {\r\n            if (b > a) return (false, 0);\r\n            return (true, a - b);\r\n        }\r\n    } \r\n    function tryMul(uint256 a, uint256 b) internal pure returns (bool, uint256) {\r\n        unchecked {\r\n            // Gas optimization: this is cheaper than requiring 'a' not being zero, but the\r\n            // benefit is lost if 'b' is also tested.\r\n            // See: https://github.com/OpenZeppelin/openzeppelin-contracts/pull/522\r\n            if (a == 0) return (true, 0);\r\n            uint256 c = a * b;\r\n            if (c / a != b) return (false, 0);\r\n            return (true, c);\r\n        }\r\n    }\r\n \r\n    function tryDiv(uint256 a, uint256 b) internal pure returns (bool, uint256) {\r\n        unchecked {\r\n            if (b == 0) return (false, 0);\r\n            return (true, a / b);\r\n        }\r\n    }\r\n \r\n    function tryMod(uint256 a, uint256 b) internal pure returns (bool, uint256) {\r\n        unchecked {\r\n            if (b == 0) return (false, 0);\r\n            return (true, a % b);\r\n        }\r\n    }\r\n \r\n    function add(uint256 a, uint256 b) internal pure returns (uint256) {\r\n        uint256 c = a+b;\r\n        require(c>=a, \"SafeMath : addtion overflow\");\r\n\r\n        return a + b;\r\n    }\r\n \r\n    function sub(uint256 a, uint256 b) internal pure returns (uint256) {\r\n        return a - b;\r\n    }\r\n \r\n    function mul(uint256 a, uint256 b) internal pure returns (uint256) {\r\n        return a * b;\r\n    } \r\n    function div(uint256 a, uint256 b) internal pure returns (uint256) {\r\n        return a / b;\r\n    }\r\n \r\n    function mod(uint256 a, uint256 b) internal pure returns (uint256) {\r\n        return a % b;\r\n    }\r\n \r\n    function sub(\r\n        uint256 a,\r\n        uint256 b,\r\n        string memory errorMessage\r\n    ) internal pure returns (uint256) {\r\n        unchecked {\r\n            require(b <= a, errorMessage);\r\n            return a - b;\r\n        }\r\n    }\r\n \r\n    function div(\r\n        uint256 a,\r\n        uint256 b,\r\n        string memory errorMessage\r\n    ) internal pure returns (uint256) {\r\n        unchecked {\r\n            require(b > 0, errorMessage);\r\n            return a / b;\r\n        }\r\n    } \r\n    function mod(\r\n        uint256 a,\r\n        uint256 b,\r\n        string memory errorMessage\r\n    ) internal pure returns (uint256) {\r\n        unchecked {\r\n            require(b > 0, errorMessage);\r\n            return a % b;\r\n        }\r\n    }\r\n}\r\n\r\nlibrary Strings {\r\n    bytes16 private constant _SYMBOLS = \"0123456789abcdef\";\r\n    uint8 private constant _ADDRESS_LENGTH = 20;\r\n\r\n    /**\r\n     * @dev Converts a `uint256` to its ASCII `string` decimal representation.\r\n     */\r\n    function toString(uint256 value) internal pure returns (string memory) {\r\n        unchecked {\r\n            uint256 length = Math.log10(value) + 1;\r\n            string memory buffer = new string(length);\r\n            uint256 ptr;\r\n            /// @solidity memory-safe-assembly\r\n            assembly {\r\n                ptr := add(buffer, add(32, length))\r\n            }\r\n            while (true) {\r\n                ptr--;\r\n                /// @solidity memory-safe-assembly\r\n                assembly {\r\n                    mstore8(ptr, byte(mod(value, 10), _SYMBOLS))\r\n                }\r\n                value /= 10;\r\n                if (value == 0) break;\r\n            }\r\n            return buffer;\r\n        }\r\n    }\r\n\r\n    /**\r\n     * @dev Converts a `uint256` to its ASCII `string` hexadecimal representation.\r\n     */\r\n    function toHexString(uint256 value) internal pure returns (string memory) {\r\n        unchecked {\r\n            return toHexString(value, Math.log256(value) + 1);\r\n        }\r\n    }\r\n\r\n    /**\r\n     * @dev Converts a `uint256` to its ASCII `string` hexadecimal representation with fixed length.\r\n     */\r\n    function toHexString(uint256 value, uint256 length) internal pure returns (string memory) {\r\n        bytes memory buffer = new bytes(2 * length + 2);\r\n        buffer[0] = \"0\";\r\n        buffer[1] = \"x\";\r\n        for (uint256 i = 2 * length + 1; i > 1; --i) {\r\n            buffer[i] = _SYMBOLS[value & 0xf];\r\n            value >>= 4;\r\n        }\r\n        require(value == 0, \"Strings: hex length insufficient\");\r\n        return string(buffer);\r\n    }\r\n\r\n    /**\r\n     * @dev Converts an `address` with fixed length of 20 bytes to its not checksummed ASCII `string` hexadecimal representation.\r\n     */\r\n    function toHexString(address addr) internal pure returns (string memory) {\r\n        return toHexString(uint256(uint160(addr)), _ADDRESS_LENGTH);\r\n    }\r\n}\r\n\r\nlibrary Address {\r\n    function isContract(address account) internal view returns (bool) {\r\n        return account.code.length > 0;\r\n    }\r\n    function sendValue(address payable recipient, uint256 amount) internal {\r\n        require(address(this).balance >= amount, \"Address: insufficient balance\");\r\n\r\n        (bool success, ) = recipient.call{value: amount}(\"\");\r\n        require(success, \"Address: unable to send value, recipient may have reverted\");\r\n    }\r\n\r\n    function functionCall(address target, bytes memory data) internal returns (bytes memory) {\r\n        return functionCallWithValue(target, data, 0, \"Address: low-level call failed\");\r\n    }\r\n\r\n    function functionCall(\r\n        address target,\r\n        bytes memory data,\r\n        string memory errorMessage\r\n    ) internal returns (bytes memory) {\r\n        return functionCallWithValue(target, data, 0, errorMessage);\r\n    }\r\n\r\n    /**\r\n     * @dev Same as {xref-Address-functionCall-address-bytes-}[`functionCall`],\r\n     * but also transferring `value` wei to `target`.\r\n     *\r\n     * Requirements:\r\n     *\r\n     * - the calling contract must have an ETH balance of at least `value`.\r\n     * - the called Solidity function must be `payable`.\r\n     *\r\n     * _Available since v3.1._\r\n     */\r\n    function functionCallWithValue(\r\n        address target,\r\n        bytes memory data,\r\n        uint256 value\r\n    ) internal returns (bytes memory) {\r\n        return functionCallWithValue(target, data, value, \"Address: low-level call with value failed\");\r\n    }\r\n\r\n    function functionCallWithValue(\r\n        address target,\r\n        bytes memory data,\r\n        uint256 value,\r\n        string memory errorMessage\r\n    ) internal returns (bytes memory) {\r\n        require(address(this).balance >= value, \"Address: insufficient balance for call\");\r\n        (bool success, bytes memory returndata) = target.call{value: value}(data);\r\n        return verifyCallResultFromTarget(target, success, returndata, errorMessage);\r\n    }\r\n\r\n    /**\r\n     * @dev Same as {xref-Address-functionCall-address-bytes-}[`functionCall`],\r\n     * but performing a static call.\r\n     *\r\n     * _Available since v3.3._\r\n     */\r\n    function functionStaticCall(address target, bytes memory data) internal view returns (bytes memory) {\r\n        return functionStaticCall(target, data, \"Address: low-level static call failed\");\r\n    }\r\n\r\n    /**\r\n     * @dev Same as {xref-Address-functionCall-address-bytes-string-}[`functionCall`],\r\n     * but performing a static call.\r\n     *\r\n     * _Available since v3.3._\r\n     */\r\n    function functionStaticCall(\r\n        address target,\r\n        bytes memory data,\r\n        string memory errorMessage\r\n    ) internal view returns (bytes memory) {\r\n        (bool success, bytes memory returndata) = target.staticcall(data);\r\n        return verifyCallResultFromTarget(target, success, returndata, errorMessage);\r\n    }\r\n\r\n    /**\r\n     * @dev Same as {xref-Address-functionCall-address-bytes-}[`functionCall`],\r\n     * but performing a delegate call.\r\n     *\r\n     * _Available since v3.4._\r\n     */\r\n    function functionDelegateCall(address target, bytes memory data) internal returns (bytes memory) {\r\n        return functionDelegateCall(target, data, \"Address: low-level delegate call failed\");\r\n    }\r\n\r\n    /**\r\n     * @dev Same as {xref-Address-functionCall-address-bytes-string-}[`functionCall`],\r\n     * but performing a delegate call.\r\n     *\r\n     * _Available since v3.4._\r\n     */\r\n    function functionDelegateCall(\r\n        address target,\r\n        bytes memory data,\r\n        string memory errorMessage\r\n    ) internal returns (bytes memory) {\r\n        (bool success, bytes memory returndata) = target.delegatecall(data);\r\n        return verifyCallResultFromTarget(target, success, returndata, errorMessage);\r\n    }\r\n \r\n    function verifyCallResultFromTarget(\r\n        address target,\r\n        bool success,\r\n        bytes memory returndata,\r\n        string memory errorMessage\r\n    ) internal view returns (bytes memory) {\r\n        if (success) {\r\n            if (returndata.length == 0) {\r\n                // only check isContract if the call was successful and the return data is empty\r\n                // otherwise we already know that it was a contract\r\n                require(isContract(target), \"Address: call to non-contract\");\r\n            }\r\n            return returndata;\r\n        } else {\r\n            _revert(returndata, errorMessage);\r\n        }\r\n    }\r\n \r\n    function verifyCallResult(\r\n        bool success,\r\n        bytes memory returndata,\r\n        string memory errorMessage\r\n    ) internal pure returns (bytes memory) {\r\n        if (success) {\r\n            return returndata;\r\n        } else {\r\n            _revert(returndata, errorMessage);\r\n        }\r\n    }\r\n\r\n    function _revert(bytes memory returndata, string memory errorMessage) private pure {\r\n        // Look for revert reason and bubble it up if present\r\n        if (returndata.length > 0) {\r\n            // The easiest way to bubble the revert reason is using memory via assembly\r\n            /// @solidity memory-safe-assembly\r\n            assembly {\r\n                let returndata_size := mload(returndata)\r\n                revert(add(32, returndata), returndata_size)\r\n            }\r\n        } else {\r\n            revert(errorMessage);\r\n        }\r\n    }\r\n}\r\n\r\ninterface IERC165 {\r\n    function supportsInterface(bytes4 interfaceId) external view returns (bool);\r\n}\r\nabstract contract ERC165 is IERC165 {\r\n    /**\r\n     * @dev See {IERC165-supportsInterface}.\r\n     */\r\n    function supportsInterface(bytes4 interfaceId) public view virtual override returns (bool) {\r\n        return interfaceId == type(IERC165).interfaceId;\r\n    }\r\n}\r\n\r\ninterface IERC721 is IERC165 {\r\n    event Transfer(address indexed from, address indexed to, uint256 indexed tokenId);\r\n    event Approval(address indexed owner, address indexed approved, uint256 indexed tokenId);\r\n    event ApprovalForAll(address indexed owner, address indexed operator, bool approved);\r\n    function balanceOf(address owner) external view returns (uint256 balance);\r\n    function ownerOf(uint256 tokenId) external view returns (address owner);\r\n    function safeTransferFrom(\r\n        address from,\r\n        address to,\r\n        uint256 tokenId,\r\n        bytes calldata data\r\n    ) external;\r\n\r\n    function safeTransferFrom(\r\n        address from,\r\n        address to,\r\n        uint256 tokenId\r\n    ) external;\r\n\r\n    function transferFrom(\r\n        address from,\r\n        address to,\r\n        uint256 tokenId\r\n    ) external;\r\n\r\n    function approve(address to, uint256 tokenId) external;\r\n    function setApprovalForAll(address operator, bool _approved) external;\r\n    function getApproved(uint256 tokenId) external view returns (address operator);\r\n    function isApprovedForAll(address owner, address operator) external view returns (bool);\r\n}\r\n\r\ninterface IERC721Metadata is IERC721 {\r\n    function name() external view returns (string memory);\r\n    function symbol() external view returns (string memory);\r\n    function tokenURI(uint256 tokenId) external view returns (string memory);\r\n}\r\n\r\ninterface IERC721Receiver {\r\n    function onERC721Received(\r\n        address operator,\r\n        address from,\r\n        uint256 tokenId,\r\n        bytes calldata data\r\n    ) external returns (bytes4);\r\n}\r\n\r\ncontract Ownable{\r\n    address payable private _owner; \r\n    event OwnershipTransferred(address indexed previousOwner, address indexed newOwner); \r\n    constructor () {\r\n        _owner = payable(msg.sender);\r\n        emit OwnershipTransferred(address(0), _owner);\r\n    } \r\n    function owner() public view returns (address payable) {\r\n        return _owner;\r\n    }\r\n    modifier onlyOwner() {\r\n        require(isOwner(), \"Ownable: caller is not the owner\");\r\n        _;\r\n    }\r\n    function isOwner() public view returns (bool) {\r\n        return msg.sender == _owner;\r\n    }\r\n    function renounceOwnership() public onlyOwner {\r\n        emit OwnershipTransferred(_owner, address(0));\r\n        _owner = payable(address(0));\r\n    }\r\n    function transferOwnership(address payable newOwner) public onlyOwner {\r\n        _transferOwnership(newOwner);\r\n    }\r\n    function _transferOwnership(address payable newOwner) internal {\r\n        require(newOwner != address(0), \"Ownable: new owner is the zero address\");\r\n        emit OwnershipTransferred(_owner, newOwner);\r\n        _owner = newOwner;\r\n    }\r\n}\r\n\r\ncontract ERC721 is Context, ERC165, IERC721, IERC721Metadata, Ownable  {\r\n    using Address for address;\r\n    using Strings for uint256;\r\n\r\n    string private _name;\r\n\r\n    string private _symbol;\r\n\r\n    mapping(uint256 => address) private _owners;\r\n\r\n    mapping(address => uint256) private _balances;\r\n\r\n    mapping(uint256 => address) private _tokenApprovals;\r\n\r\n    mapping(address => mapping(address => bool)) private _operatorApprovals;\r\n\r\n    constructor(){\r\n\r\n    }\r\n\r\n    string private _baseURI;\r\n\r\n    function setBaseURI(string memory baseURI_) public onlyOwner{\r\n        _baseURI = baseURI_;\r\n    }\r\n\r\n    function setName(string memory name_) public onlyOwner{\r\n        _name = name_;\r\n    }\r\n    function setSymbol(string memory symbol_) public onlyOwner{\r\n        _symbol = symbol_;\r\n    } \r\n\r\n    function supportsInterface(bytes4 interfaceId) public view virtual override(ERC165, IERC165) returns (bool) {\r\n        return\r\n            interfaceId == type(IERC721).interfaceId ||\r\n            interfaceId == type(IERC721Metadata).interfaceId ||\r\n            super.supportsInterface(interfaceId);\r\n    }\r\n\r\n    function balanceOf(address owner) public view virtual override returns (uint256) {\r\n        require(owner != address(0), \"ERC721: address zero is not a valid owner\");\r\n        return _balances[owner];\r\n    }\r\n\r\n    function ownerOf(uint256 tokenId) public view virtual override returns (address) {\r\n        address owner = _ownerOf(tokenId);\r\n        require(owner != address(0), \"ERC721: invalid token ID\");\r\n        return owner;\r\n    }\r\n\r\n    function name() public view virtual override returns (string memory) {\r\n        return _name;\r\n    }\r\n\r\n    function symbol() public view virtual override returns (string memory) {\r\n        return _symbol;\r\n    }\r\n\r\n    function tokenURI(uint256 tokenId) public view virtual override returns (string memory) {\r\n        _requireMinted(tokenId);\r\n\r\n        string memory baseURI_ = baseURI(); \r\n        return bytes(baseURI_).length > 0 ? baseURI_ : \"\";\r\n    }\r\n\r\n    function baseURI() internal view virtual returns (string memory) {\r\n        return _baseURI;\r\n    }\r\n \r\n    function approve(address to, uint256 tokenId) public virtual override {\r\n        address owner = ERC721.ownerOf(tokenId);\r\n        require(to != owner, \"ERC721: approval to current owner\");\r\n\r\n        require(\r\n            _msgSender() == owner || isApprovedForAll(owner, _msgSender()),\r\n            \"ERC721: approve caller is not token owner or approved for all\"\r\n        );\r\n\r\n        _approve(to, tokenId);\r\n    }\r\n \r\n    function getApproved(uint256 tokenId) public view virtual override returns (address) {\r\n        _requireMinted(tokenId);\r\n\r\n        return _tokenApprovals[tokenId];\r\n    }\r\n \r\n    function setApprovalForAll(address operator, bool approved) public virtual override {\r\n        _setApprovalForAll(_msgSender(), operator, approved);\r\n    }\r\n \r\n    function isApprovedForAll(address owner, address operator) public view virtual override returns (bool) {\r\n        return _operatorApprovals[owner][operator];\r\n    }\r\n \r\n    function transferFrom(\r\n        address from,\r\n        address to,\r\n        uint256 tokenId\r\n    ) public virtual override {\r\n        //solhint-disable-next-line max-line-length\r\n        require(_isApprovedOrOwner(_msgSender(), tokenId), \"ERC721: caller is not token owner or approved\");\r\n\r\n        _transfer(from, to, tokenId);\r\n    }\r\n \r\n    function safeTransferFrom(\r\n        address from,\r\n        address to,\r\n        uint256 tokenId\r\n    ) public virtual override {\r\n        safeTransferFrom(from, to, tokenId, \"\");\r\n    }\r\n \r\n    function safeTransferFrom(\r\n        address from,\r\n        address to,\r\n        uint256 tokenId,\r\n        bytes memory data\r\n    ) public virtual override {\r\n        require(_isApprovedOrOwner(_msgSender(), tokenId), \"ERC721: caller is not token owner or approved\");\r\n        _safeTransfer(from, to, tokenId, data);\r\n    }\r\n \r\n    function _safeTransfer(\r\n        address from,\r\n        address to,\r\n        uint256 tokenId,\r\n        bytes memory data\r\n    ) internal virtual {\r\n        _transfer(from, to, tokenId);\r\n        require(_checkOnERC721Received(from, to, tokenId, data), \"ERC721: transfer to non ERC721Receiver implementer\");\r\n    }\r\n \r\n    function _ownerOf(uint256 tokenId) internal view virtual returns (address) {\r\n        return _owners[tokenId];\r\n    }\r\n \r\n    function _exists(uint256 tokenId) internal view virtual returns (bool) {\r\n        return _ownerOf(tokenId) != address(0);\r\n    }\r\n \r\n    function _isApprovedOrOwner(address spender, uint256 tokenId) internal view virtual returns (bool) {\r\n        address owner = ERC721.ownerOf(tokenId);\r\n        return (spender == owner || isApprovedForAll(owner, spender) || getApproved(tokenId) == spender);\r\n    } \r\n\r\n    function _safeMint(address to, uint256 tokenId) internal virtual {\r\n        _safeMint(to, tokenId, \"\");\r\n    }\r\n \r\n    function _safeMint(\r\n        address to,\r\n        uint256 tokenId,\r\n        bytes memory data\r\n    ) internal virtual {\r\n        _mint(to, tokenId);\r\n        require(\r\n            _checkOnERC721Received(address(0), to, tokenId, data),\r\n            \"ERC721: transfer to non ERC721Receiver implementer\"\r\n        );\r\n    }\r\n \r\n    function _mint(address to, uint256 tokenId) internal virtual {\r\n        require(to != address(0), \"ERC721: mint to the zero address\");\r\n        require(!_exists(tokenId), \"ERC721: token already minted\");\r\n\r\n        _beforeTokenTransfer(address(0), to, tokenId);\r\n\r\n        // Check that tokenId was not minted by `_beforeTokenTransfer` hook\r\n        require(!_exists(tokenId), \"ERC721: token already minted\");\r\n\r\n        unchecked {\r\n            // Will not overflow unless all 2**256 token ids are minted to the same owner.\r\n            // Given that tokens are minted one by one, it is impossible in practice that\r\n            // this ever happens. Might change if we allow batch minting.\r\n            // The ERC fails to describe this case.\r\n            _balances[to] += 1;\r\n        }\r\n\r\n        _owners[tokenId] = to;\r\n\r\n        emit Transfer(address(0), to, tokenId);\r\n\r\n        _afterTokenTransfer(address(0), to, tokenId);\r\n    }\r\n \r\n    function _burn(uint256 tokenId) internal virtual {\r\n        address owner = ERC721.ownerOf(tokenId);\r\n\r\n        _beforeTokenTransfer(owner, address(0), tokenId);\r\n\r\n        // Update ownership in case tokenId was transferred by `_beforeTokenTransfer` hook\r\n        owner = ERC721.ownerOf(tokenId);\r\n\r\n        // Clear approvals\r\n        delete _tokenApprovals[tokenId];\r\n\r\n        unchecked {\r\n            // Cannot overflow, as that would require more tokens to be burned/transferred\r\n            // out than the owner initially received through minting and transferring in.\r\n            _balances[owner] -= 1;\r\n        }\r\n        delete _owners[tokenId];\r\n\r\n        emit Transfer(owner, address(0), tokenId);\r\n\r\n        _afterTokenTransfer(owner, address(0), tokenId);\r\n    } \r\n\r\n    function _transfer(\r\n        address from,\r\n        address to,\r\n        uint256 tokenId\r\n    ) internal virtual {\r\n        require(ERC721.ownerOf(tokenId) == from, \"ERC721: transfer from incorrect owner\");\r\n        require(to != address(0), \"ERC721: transfer to the zero address\");\r\n\r\n        _beforeTokenTransfer(from, to, tokenId);\r\n\r\n        // Check that tokenId was not transferred by `_beforeTokenTransfer` hook\r\n        require(ERC721.ownerOf(tokenId) == from, \"ERC721: transfer from incorrect owner\");\r\n\r\n        // Clear approvals from the previous owner\r\n        delete _tokenApprovals[tokenId];\r\n\r\n        unchecked { \r\n            _balances[from] -= 1;\r\n            _balances[to] += 1;\r\n        }\r\n        _owners[tokenId] = to;\r\n\r\n        emit Transfer(from, to, tokenId);\r\n\r\n        _afterTokenTransfer(from, to, tokenId);\r\n    }\r\n \r\n    function _approve(address to, uint256 tokenId) internal virtual {\r\n        _tokenApprovals[tokenId] = to;\r\n        emit Approval(ERC721.ownerOf(tokenId), to, tokenId);\r\n    }\r\n \r\n    function _setApprovalForAll(\r\n        address owner,\r\n        address operator,\r\n        bool approved\r\n    ) internal virtual {\r\n        require(owner != operator, \"ERC721: approve to caller\");\r\n        _operatorApprovals[owner][operator] = approved;\r\n        emit ApprovalForAll(owner, operator, approved);\r\n    }\r\n \r\n    function _requireMinted(uint256 tokenId) internal view virtual {\r\n        require(_exists(tokenId), \"ERC721: invalid token ID\");\r\n    } \r\n\r\n    function _checkOnERC721Received(\r\n        address from,\r\n        address to,\r\n        uint256 tokenId,\r\n        bytes memory data\r\n    ) private returns (bool) {\r\n        if (to.isContract()) {\r\n            try IERC721Receiver(to).onERC721Received(_msgSender(), from, tokenId, data) returns (bytes4 retval) {\r\n                return retval == IERC721Receiver.onERC721Received.selector;\r\n            } catch (bytes memory reason) {\r\n                if (reason.length == 0) {\r\n                    revert(\"ERC721: transfer to non ERC721Receiver implementer\");\r\n                } else {\r\n                    /// @solidity memory-safe-assembly\r\n                    assembly {\r\n                        revert(add(32, reason), mload(reason))\r\n                    }\r\n                }\r\n            }\r\n        } else {\r\n            return true;\r\n        }\r\n    }\r\n \r\n    function _beforeTokenTransfer(\r\n        address from,\r\n        address to,\r\n        uint256 tokenId\r\n    ) internal virtual {}\r\n \r\n    function _afterTokenTransfer(\r\n        address from,\r\n        address to,\r\n        uint256 tokenId\r\n    ) internal virtual {}\r\n \r\n    function _beforeConsecutiveTokenTransfer(\r\n        address from,\r\n        address to,\r\n        uint256, /*first*/\r\n        uint96 size\r\n    ) internal virtual {\r\n        if (from != address(0)) {\r\n            _balances[from] -= size;\r\n        }\r\n        if (to != address(0)) {\r\n            _balances[to] += size;\r\n        }\r\n    }\r\n \r\n    function _afterConsecutiveTokenTransfer(\r\n        address, /*from*/\r\n        address, /*to*/\r\n        uint256, /*first*/\r\n        uint96 /*size*/\r\n    ) internal virtual {}\r\n}\r\n\r\ncontract Metafloris is ERC721 {\r\n\r\n    using SafeMath for uint256;\r\n    using Strings for uint256;\r\n\r\n    // can not buy between antibotInterval  for bot attack\r\n    mapping(address => uint256) private _lastCallBlockNumber;\r\n    uint256 private _antibotInterval;\r\n\r\n    uint256 private _mintMaxCnt;\r\n    uint256 private _mintNowIndex; \r\n    uint256 private _priceUnit;\r\n        \r\n    struct MetaflorisFlower {\r\n        uint256 _flowerType; \r\n        string _flowerName;\r\n        uint256 _maxAmount;\r\n        string  _tokenInfoUri;\r\n        uint256 _price; \r\n    }  \r\n\r\n\r\n    //tokenId - Flowertype  mapping\r\n    mapping(uint256 => uint256) private _tokenIdAndFlowerTypeMap;\r\n    //Flowertype - MetaflorisFlowerInfo mapping\r\n    mapping(uint256 => MetaflorisFlower) private _productsMap;\r\n    //Flowertype - sellCnt mapping\r\n    mapping(uint256 => uint256) private _productSellStateMap;\r\n    uint256 private _flowerTypeCnt=0;\r\n\r\n    function getProductSellState(uint256 flowerType) public onlyOwner view returns (uint256){\r\n        return _productSellStateMap[flowerType];\r\n    }\r\n\r\n    function getFlowerItemByTokenId(uint256 tokenId) public onlyOwner view returns (MetaflorisFlower memory){\r\n        return  _productsMap[_tokenIdAndFlowerTypeMap[tokenId]];\r\n    }\r\n\r\n    function getFlowerTypeCnt() public onlyOwner view returns (uint256){\r\n        return _flowerTypeCnt;\r\n    }\r\n\r\n    function getMetaflorisFlowerInfo(uint256 flowerType) public onlyOwner view returns (MetaflorisFlower memory){\r\n        return _productsMap[flowerType];\r\n    }\r\n    \r\n    function getFlowerInfo(uint256 flowerType) private view returns (MetaflorisFlower memory){ \r\n        return _productsMap[flowerType];\r\n    } \r\n\r\n    function addProduct(string memory flowerName, uint256 maxAmount, string memory tokenUri, uint256 price) public onlyOwner returns (MetaflorisFlower memory)  {\r\n        uint256 tempId = _flowerTypeCnt;\r\n        _flowerTypeCnt+=1;\r\n        _productsMap[tempId] =  MetaflorisFlower(tempId, flowerName, maxAmount, tokenUri, price*_priceUnit); \r\n        _productSellStateMap[tempId] = 0; \r\n        return _productsMap[tempId];\r\n    }\r\n\r\n    function chaneProductInfo(uint flowerType,  string memory flowerName, uint256 maxAmount, string memory tokenUri, uint256 price) public onlyOwner {\r\n        _productsMap[flowerType] = MetaflorisFlower(flowerType, flowerName, maxAmount, tokenUri, price*_priceUnit);\r\n    }\r\n        \r\n\r\n    function _beforeTokenTransfer(address from, address to, uint256 tokenId)\r\n        internal\r\n        override(ERC721)\r\n    {\r\n        holdTimeMap[tokenId] = block.timestamp; \r\n        super._beforeTokenTransfer(from, to, tokenId);\r\n    }\r\n    \r\n    function tokenURI(uint256 tokenId)\r\n        public\r\n        view\r\n        override(ERC721)\r\n        returns (string memory)\r\n    {  \r\n        string memory path = super.tokenURI(tokenId);\r\n        \r\n        MetaflorisFlower memory flower = _productsMap[_tokenIdAndFlowerTypeMap[tokenId]]; \r\n\r\n        string memory result = string(abi.encodePacked(string(abi.encodePacked(string(abi.encodePacked(path, flower._tokenInfoUri)), tokenId.toString() )), \".json\"));\r\n \r\n        return bytes(result).length > 0 ? result : \"\";\r\n    }\r\n\r\n\r\n    function supportsInterface(bytes4 interfaceId)\r\n        public\r\n        view\r\n        override(ERC721)\r\n        returns (bool)\r\n    {\r\n        return super.supportsInterface(interfaceId);\r\n    }\r\n  \r\n    function getLastCallBlockNumber() public view returns (uint256){\r\n        return _lastCallBlockNumber[msg.sender];\r\n    }\r\n\r\n    constructor(){\r\n        _mintNowIndex=0; \r\n        _antibotInterval = 3;\r\n        _priceUnit = 1e15; //1 ether=>  1e18 ,  \r\n    }  \r\n \r\n    //public mintting\r\n    function buyNFT(uint256 flowerType) external payable{\r\n        require(flowerType < _flowerTypeCnt , \"It is not exist flower Type\");  \r\n\r\n        MetaflorisFlower memory flowerInfo = getFlowerInfo(flowerType); \r\n        require(msg.value >= flowerInfo._price, \"Not enough eth\"); \r\n        require(_productSellStateMap[flowerType].add(1) <= _productsMap[flowerType]._maxAmount, \"Exceed max amount\"); \r\n     //   require(_lastCallBlockNumber[msg.sender].add(_antibotInterval) < block.number, \"Bot is not allowed\");  \r\n\r\n        uint256 tokenId = _mintNowIndex;\r\n        _mintNowIndex = _mintNowIndex.add(1); \r\n        _safeMint(msg.sender, tokenId);  \r\n\r\n        _tokenIdAndFlowerTypeMap[tokenId] = flowerType;\r\n        _productSellStateMap[flowerType] = _productSellStateMap[flowerType].add(1); \r\n        _lastCallBlockNumber[msg.sender] = block.number;\r\n        changeHoldTime(tokenId);\r\n    }\r\n\r\n    \r\n    //for calculating the NFT hold time.\r\n    //tokenId - date mapping\r\n    mapping(uint256 => uint256) holdTimeMap;\r\n\r\n    function changeHoldTime(uint256 tokenId) public{\r\n        require(_ownerOf(tokenId) == msg.sender, \"Only the owner can change\");\r\n        \r\n        holdTimeMap[tokenId] = block.timestamp;   \r\n    }\r\n    function getHoldTimeMap(uint256 tokenId) public view returns (uint256){\r\n        return holdTimeMap[tokenId]; \r\n    } \r\n}\r\n\r\n",
  "sourcePath": "C:\\Users\\test\\Desktop\\\\metaflori\\nft\\contracts\\Metafloris.sol",
  "compiler": {
    "name": "solc",
    "version": "0.8.13+commit.abaa5c0e.Emscripten.clang"
  },
  "schemaVersion": "3.4.11",
  "updatedAt": "2022-11-26T15:13:36.907Z",
  "networkType": "ethereum",
  "devdoc": {
    "kind": "dev",
    "methods": {},
    "version": 1
  },
  "userdoc": {
    "kind": "user",
    "methods": {},
    "version": 1
  }
}